:100000000C94D1010C9402020C9402020C94020292
:100010000C9402020C9402020C9402020C94020250
:100020000C9402020C9402020C9402020C94020240
:100030000C9402020C9402020C9402020C94020230
:100040000C9402020C9402020C9402020C94020220
:100050000C9402020C9402020C9402020C942433BD
:100060000C9402020C945A220C9430220C9402023A
:100070000C9402020C9402020C9402020C940202F0
:100080000C9402020C9402020C9402020C940202E0
:100090000C9402020C9402020C9402020C940202D0
:1000A0000C9402020C9402020C9402020C940202C0
:1000B0000C9402020C9402020C9402020C940202B0
:1000C0000C9402020C9402020C9402020C940202A0
:1000D0000C9402020C9402020C9402020C94020290
:1000E0000C940202542A572A462A4A2A502A8E2A57
:1000F0005B2A5F2A652A692A6D2A732A772A7B2A56
:100100008E2A812A852A892A0C946E180C94652AD5
:100110000C94F50A0C94542A0C94F80C0C94BF1A05
:100120000C94390B0C9484190C945F2A0C94AD1820
:100130000C94D81D0C948E2A0C94C1190C94DE0AD0
:100140000C94462A0C94A5180C94EC170C947E027F
:100150000C94AB180C94211F0C94BD1A0C941A0229
:100160000C94370C0C947B2A0C9440110C94572A55
:100170000C946B0B0C94C11A0C94570F0C94F90A45
:100180000C9489110C949E190C940B190C94E21880
:100190000C94812A0C9422020C947C1F0C94C510A0
:1001A0000C9437180C945B2A0C9415020C94DF0AFB
:1001B0000C94980D0C94B70C0C94502A0C946E1F50
:1001C0000C947D100C94852A0C94A21E0C94D61DC0
:1001D0000C9404020C94641B0C94193C0C941A1893
:1001E0000C9466190C9443020C94B41F0C94AA1836
:1001F0000C94732A0C94772A0C9445020C94DA1D03
:100200000C94CA190C943A020C94C4210C94892AB7
:100210000C94D91D0C942A020C9446020C94F411EF
:100220000C944A2A0C9476200C94CF190C944B1FF2
:100230000C94A7190C940E0E0C9401200C94170228
:100240000C94A8180C94692A0C94271A0C94DB1AA5
:100250000C946D2A0C94BB1A0C9407020C94D71DB5
:100260000C94E0180C949C100C945A1F0C947B195D
:100270000C9426020C94C31A0C942E190C940B02A5
:1002800000002100240027002A002D003000330048
:1002900001010000040107010A01000022002500FD
:1002A00028002B002E00310034000201000005015F
:1002B00008010B01000020002300260029002C006B
:1002C0002F003200000100000301060109010505AD
:1002D0000505070508080808020202020A0A0808BC
:1002E00004040404010101010101010103030303EA
:1002F00003030303040707070C0C0C0C0C0C0C0C79
:100300000202020206060606060606060B0B0B0B89
:100310000B0B0B0B010210202008081020401020AE
:1003200040800201020108040201010204081020B9
:1003300040808040201008040201800402018040B7
:100340002010080402010804020101020408102020
:100350004080010204081020408000000A0B0209BE
:100360000C0D0E080703040100000000000000004F
:10037000000000000000000000000000000000007D
:10038000000000000000121110000000000000003A
:10039000000000000000000000000000000000005D
:1003A000193C11241FBECFEFD1E2DEBFCDBF00E06C
:1003B0000CBF18E0A0E0B2E0E6EDF5E800E00BBF0E
:1003C00002C007900D92A836B107D9F72AE0A8E637
:1003D000B8E001C01D92AE38B207E1F711E0C1EDFF
:1003E000D1E000E006C021970109802FFE010E94A4
:1003F000613FC03DD10780E00807A9F70E946E3336
:100400000C94E9420C94000081E090E00895FC0116
:10041000768765870895DC01ED91FC91068CF78D58
:10042000E02D199591E089270895862F089581E0A0
:100430008627089521E0FC018485883008F020E0BB
:10044000822F0895FC01848595850895FC01848997
:10045000958908952EEA33E0FC0131832083FB0166
:100460004089518962897389FC0142835383648383
:1004700075830895DC01ED91FC91048CF58DE02DE0
:10048000199480E0089581E00895089580E090E057
:100490000895FF920F931F93CF93DF93611571051A
:1004A00049F46CE977E0DF91CF911F910F91FF90B4
:1004B0000C948A1E8B01EC0162E2CE010E94661E42
:1004C000F80161918F01662351F0EDE8F7E0F080CB
:1004D000FF2099F38181681759F03296F8CF62E2D4
:1004E000CE01DF91CF911F910F91FF900C94661E6A
:1004F0006CE5CE010E94661E6F2DDFCF0C94682C38
:10050000CF92DF92EF92FF920F931F93CF93DF93DF
:10051000009709F451C06115710509F44DC06A01D5
:100520007B01EC010881198101151105B9F0D80191
:1005300016966D917C9117976115710529F0C70189
:100540000E94CB42892BD9F1F8018581882331F0B3
:10055000F8E08F02000D111D1124E6CFD60114968C
:10056000ED91FC91159712968D919C911397089699
:10057000E817F90708F13897D6011596FC93EE9322
:1005800014973097C9F0AA81BB81109759F0CF0119
:100590008A1B9B0B23E0959587952A95E1F7159685
:1005A0008C9302C0F983E883FB83EA83158214826B
:1005B000F782E682CF0104C080E090E001C0C8016C
:1005C000DF91CF911F910F91FF90EF90DF90CF902F
:1005D0000895FC019B01892BD1F09481AB01770F29
:1005E000660B770B907837FD03C09660948309C043
:1005F0009760948370956095509541955F4F6F4FCC
:100600007F4F408351836283738381E0089580E04C
:100610000895FC010D9691838083938382830097D4
:1006200021F09F012B523F4F02C020E030E0358384
:100630002483892B21F0CF018B529F4F02C080E091
:1006400090E0978386838485807884870895FC0171
:10065000892B51F0948190789860948340835183E2
:100660006283738381E0089580E00895AF92BF9222
:10067000CF92DF92EF92FF920F931F93CF93DF936E
:100680001F921F92CDB7DEB76C015B017A01FC01AE
:1006900080819181FC0164817581640F751F0E94C6
:1006A00091208501EA0CFB1C0E151F0581F0F80155
:1006B00021918F01F6018081918129831A8241E085
:1006C00050E0BE016F5F7F4F0E94B820EDCF80E009
:1006D00090E00F900F90DF91CF911F910F91FF90BD
:1006E000EF90DF90CF90BF90AF9008952F923F9200
:1006F0004F925F926F927F928F929F92AF92BF9232
:10070000CF92DF92EF92FF920F931F93CF93DF93DD
:10071000CDB7DEB766970FB6F894DEBF0FBECDBF7C
:100720007C018B01DC0114968C918F77853009F464
:10073000A7C068F4813008F4B2C0833008F485C0E3
:10074000D7016D917C91C8010E94490214C2883082
:1007500009F190F4863009F48AC0873009F09FC00F
:10076000D701CD90DD90ED90FC906DE2C8010E9424
:10077000661EB701A60180C0803209F461C08034D2
:1007800009F08DC06BE5C8010E94661ED701ED908F
:10079000FC904EC0F7014080518062807380A301BD
:1007A0009201C301B2010E94C63D882319F061EA9B
:1007B00077E077C020E030E0A901C301B2010E94D8
:1007C000C63D87FF08C06DE2C8010E94661E77FA29
:1007D000709477F8709420E030E0A901C301B20171
:1007E0000E94C63D882309F460C0A3019201C301A1
:1007F000B2010E94853FA30192010E94C63D811172
:1008000054C063EB77E04DC0B801C7010E94760386
:10081000F7018581882379F0F8E08F02E00CF11C64
:100820001124E114F10439F06CE2C8010E94661E43
:10083000E114F10449F76DE5C8010E94661E9BC1F1
:10084000B701C8010E94D40596C1F70142815381C6
:1008500060817181D8018D919C910E943603F801CD
:1008600022813381820F931F9383828384C1F70196
:100870004081518162817381C8010E941C1E7BC12D
:10088000F70180819181A281B381892B8A2B8B2BE7
:1008900019F068EA77E005C06DEA77E002C06CE91C
:1008A00077E0C8010E948A1E66C120E836E948E167
:1008B0005BE4C301B2010E94994087FF29C160E255
:1008C000E62EF12C75E0B72E212C312C20E030E003
:1008D000A901C301B2010E949940181694F52CEAAF
:1008E00035EC47E257E3C301B2010E94C63D18163A
:1008F00044F19FEFB91629F1AB2DB4E0AB026001D2
:100900001124F601E353FD4FA3019201608171812F
:10091000828193810E94994018167CF4F601E3507D
:10092000FD4F2081318142815381C301B2010E9478
:100930002C3E2B013C012E183F08F594E794BA9405
:10094000D8CFC301B2010E946A404B015C016B0128
:100950007C01E6E0EE8B80E492E4AFE0B0E08A8BCD
:100960009B8BAC8BBD8B9E89998BA92FA150AE8B95
:10097000BAE0CB16D104E104F104C8F06A897B899E
:100980008C899D892AE030E040E050E00E941C3FC5
:100990002A8B3B8B4C8B5D8BC701B6012AE030E084
:1009A00040E050E00E941C3F69017A01DCCFC501A4
:1009B000B4010E94CB3D9B01AC01C301B2010E9476
:1009C000843F6B017C016A897B898C899D890E94A7
:1009D000CB3D9B01AC01C701B6010E942C3E2B010F
:1009E0003C010E946A406B017C010E94CB3D9B014F
:1009F000AC01C301B2010E94843F9B01AC010E9483
:100A0000853F0E946A40C60ED71EE81EF91E8A89DD
:100A10009B89AC89BD89C816D906EA06FB06E0F0B9
:100A20009FEF891A990AA90AB90A2114310489F099
:100A3000AAE08A169104A104B10458F0BFEF2B1A62
:100A40003B0AC12CD12C7601812C912C540183942A
:100A500003C0C12CD12C76013AE0432E512C612CDD
:100A6000712CC701B601A30192010E941C3F672BA4
:100A7000682B692B41F4E9891E162CF469017A016F
:100A8000E150E98BEECFB501A401C8010E941C1E04
:100A9000F989FF2329F15F2E5E0181E1A80EB11CC7
:100AA00035015A949FEF591679F0C701B6012AE033
:100AB00030E040E050E00E941C3F605DD5016E9345
:100AC0005D0169017A01EDCFB301B9896B1B710931
:100AD0008EE2FB018293BF01A301C8010E94DB1DCE
:100AE00037FE0AC065EA77E0C8010E948A1E6627C1
:100AF00077276219730908C021143104E1F165E612
:100B0000C8010E94661EB101C8010E94ED1D33C0DC
:100B100085E1A82E83E0B82E95EEC92E92E0D92E5D
:100B200020E2E22EF12C212C312CA3019201D501DF
:100B30009E918E917E916E915D010E94C63D181628
:100B40006CF0F6012489358946895789C301B201C1
:100B50000E942C3E2B013C012E0C3F1CF594E79487
:100B6000F4E0CF1AD1088DEFA81682E0B806E9F6B6
:100B7000BB24BA94ABCE66960FB6F894DEBF0FBE18
:100B8000CDBFDF91CF911F910F91FF90EF90DF903C
:100B9000CF90BF90AF909F908F907F906F905F901D
:100BA0004F903F902F9008950F931F93CF93DF9313
:100BB0008C01EB016BE70E94661E0990D881C02D65
:100BC0002097E1F06E817F81C8010E9449026AE3AB
:100BD000C8010E94661EB801CE010E9476038D8175
:100BE000882361F098E08902C00DD11D112420975F
:100BF00029F06CE2C8010E94661EE2CF6DE7C801D1
:100C0000DF91CF911F910F910C94661EFC0113820E
:100C1000128288EE93E0A0E0B0E084839583A683FF
:100C2000B78387EA92E0918380838EEA93E0978787
:100C30008687108A118A128A138A88E0808F089525
:100C40000F931F93CF93DF93EC0188819981DC018F
:100C5000ED91FC910480F581E02D19950A811B81AD
:100C60002C813D81601B710B820B930BDF91CF9127
:100C70001F910F910895CF92DF92EF92FF92CF9341
:100C8000DF93EC010E94200621E0CE80DF80E88423
:100C9000F9846C157D058E059F0508F420E0822FF0
:100CA000DF91CF91FF90EF90DF90CF900895CF929A
:100CB000DF92EF92FF92CF93DF93EC016A017B0109
:100CC00088819981DC01ED91FC910480F581E02D12
:100CD00019956A837B838C839D83CE82DF82E8862D
:100CE000F986DF91CF91FF90EF90DF90CF9008953C
:100CF000FC0146815781608571850C9457062F92BF
:100D00003F924F925F926F927F928F929F92AF929B
:100D1000BF92CF92DF92EF92FF920F931F93CF93E8
:100D2000DF93CDB7DEB72A970FB6F894DEBF0FBEBC
:100D3000CDBF6C015B01DC014D915D916D917C91AA
:100D400013971C968D919C911D979A8389831B8282
:100D50001C821D821E821F82188619861A86CE0169
:100D600001960E945706F60180899189DC01ED9178
:100D7000FC910480F581E02D19954C01E12CF12CBA
:100D8000EA14FB040CF043C0D6011E96ED91FC91D1
:100D90001F970190F081E02D26803780CE010196CB
:100DA0000E943B0681110FC04F80588469847A8469
:100DB000CE0101960E94200693018201061B170BAB
:100DC000280B390B03C000E010E09801A5014E1973
:100DD0005F09B4016E0D7F1DF60186859785F101CF
:100DE000199597FD11C0009739F0E80EF91ECE0154
:100DF00001960E947806C4CFCE0101960E943B0660
:100E0000882309F4BDCF03C08BEF9FEF0CC0AE1455
:100E1000BF0439F4C60149960E94780680E090E04C
:100E200002C08FEF9FEF2A960FB6F894DEBF0FBE79
:100E3000CDBFDF91CF911F910F91FF90EF90DF9089
:100E4000CF90BF90AF909F908F907F906F905F906A
:100E50004F903F902F9008952F923F924F925F9224
:100E60006F927F928F929F92AF92BF92CF92DF92BA
:100E7000EF92FF920F931F93CF93DF93CDB7DEB71F
:100E800066970FB6F894DEBF0FBECDBF7C017E8B98
:100E90006D8BDC014D915D916D917C9113971C964A
:100EA0008D919C911D979A8389831B821C821D8240
:100EB0001E821F82188619861A86FE0131966F01DE
:100EC000CF010E945706AD89BE891C92F701828925
:100ED0009389DC01ED91FC910480F581E02D199559
:100EE0004701BEE08B0E911C960141E050E0BC0131
:100EF000C4010E94392F019779F0F7018685978503
:100F0000DC01ED91FC910084F185E02D19958111B2
:100F10007FC00BEF1FEF81C0C6010E94780604E07E
:100F200010E0A12CB12C212C312C2101239496010D
:100F300041E050E0BE01655F7F4FC4010E94392F40
:100F40000197F9F48B858F7790E0829D9001839DC6
:100F5000300D929D300D1124A20EB31E77E0220CAD
:100F6000331C441C551C7A95D1F70150110961F0CE
:100F7000C6010E9478068B8587FDD9CF00E010E07E
:100F800005C00BEF1FEF02C009EF1FEF01151105A0
:100F900009F043C0F70182899389DC01ED91FC914E
:100FA0000480F581E02D1995B50101960E94C51CBC
:100FB00001962C011C012A0C3B1CF70182899389A4
:100FC000DC01ED91FC910680F781E02D19958215E9
:100FD00093050CF1C6010E9478061A141B040CF04C
:100FE00005C2F70182899389DC01ED91FC910480AF
:100FF000F581E02D1995BC01640D751D9601A501C3
:10100000C4010E94392F8A159B0509F082CFEEC1D9
:101010000AEF1FEF02C008EF1FEF0B3FBFEF1B07E8
:1010200029F4F701168A108E178A15A6AD89BE8994
:101030008C91882309F4A1C111968D919C911297EE
:101040008630910509F44EC18D30910521F003974A
:1010500009F091C103C0F70115A68DC11C861B863E
:101060001E861D86188A1F86D70152968D919C91E7
:101070005397DC01ED91FC910680F781E02D1995E5
:10108000F70182899389DC01ED91FC910480F5815F
:10109000E02D1995FC011A8A198A9081892F807F89
:1010A000803309F057C08F010F5F1F4F93FB8827D4
:1010B00080F98C83892F86958370682E712C9170AE
:1010C0009B831093DE080093DD08CE0141960E94B9
:1010D000DF2FF801E80FF91F29893A89AF01420F84
:1010E000531F22303105ACF0208130E0322F22270F
:1010F0006181260F311D32963E872D872E0F3F1FAF
:101100004217530730F0F88BEF87F90121E030E008
:1011100002C020E030E01C861B86232BE9F09A01F8
:101120002E1B3F0B37FD18C06114710451F08081F4
:1011300090E0982F88272181820F911D32969E83FF
:101140008D834E1B5F0B5A874987F887EF8381E0B9
:1011500090E002C080E090E0019709F009C17A8236
:101160006982B1E06B16710441F0E2E06E16710421
:1011700001F1672809F0FFC044C00D811E81D7012D
:1011800050968D919C915197DC01ED91FC910680D8
:10119000F781E02D19955C01F70180899189DC01C7
:1011A000ED91FC910480F581E02D1995980144E0C2
:1011B00019C00D811E81F70180899189DC01ED91B3
:1011C000FC910680F781E02D19955C01F70180897B
:1011D0009189DC01ED91FC910480F581E02D199558
:1011E000980145E0B5010E94A12F181619060CF0D0
:1011F0001BC1BC01C7010E947F068C01892B09F02D
:10120000BCC000E010E0A12CB12C4E01BBE08B0E65
:10121000911CF70184899589DC01ED91FC91048092
:10122000F581E02D1995A816B9060CF0A4C0F701B8
:1012300084899589DC01ED91FC910084F185E02D94
:101240001995800F911FFC0180819181892B09F4F0
:1012500043C0D70154968D919C915597DC01ED9137
:10126000FC910084F185E02D1995800F911FFC0100
:10127000608171818B859C85009749F0FC0101900C
:101280000020E9F73197AF01481B590B04C08F8547
:1012900098894D855E85FB0101900020E9F7319723
:1012A000E61BF70BE417F50709F0C1C00E94DB420B
:1012B000892B09F0BCC041C190819F3209F0CDC09B
:1012C0008F3251F43196DA018D91AD01882309F402
:1012D000DBC0E217F30780F3BFEFAB1ABB0A0C5F6A
:1012E0001F4F97CFF70182899389DC01ED91FC9123
:1012F0000680F781E02D19958C01F7018289938989
:10130000DC01ED91FC910480F581E02D19959C01A3
:10131000A601BE01655F7F4FCE0141960E94EC1C85
:10132000019731F5C980DA80F70180899189DC0164
:10133000ED91FC910680F781E02D19958C01F70164
:1013400080899189DC01ED91FC910480F581E02D8B
:101350001995960147E0B8010E94A12F18161906A9
:101360000CF062C0BC01C7010E947F068C0105C061
:101370000CEF1FEF02C000E010E0F70185A5882305
:1013800031F0C7018E960E943B06811182C0D701C1
:1013900056968C915697882309F4E8C057968D91FC
:1013A0009C915897892B09F4C5C09D968C91811109
:1013B000C1C08701075E1F4FC8010E943B06811113
:1013C0006EC0C8010E942006F701068117812085A2
:1013D0003185061717072807390708F0ABC0C70182
:1013E00083960E943B0681115AC0A4C0D701529631
:1013F0008D919C915397DC01ED91FC910480F581D6
:10140000E02D1995FC01808182958F7090E0AD8967
:10141000BE8912969C938E93119781E08C93C7019D
:1014200083960E947806F9CD0DEF1FEFA6CFF70146
:1014300084899589DC01ED91FC910084F185E02D92
:101440001995EF85F8892D853E852E0F3F1F800F5A
:10145000911FDC014D915C9136CF8B3231F083329C
:1014600081F0891709F42ECF37CFDF011196FD01E6
:101470003197A217B30709F425CF8D918F32B9F7B1
:1014800021CFF90131971ECF2E173F0709F024CF46
:1014900054C0F701168A108E178A15A678CFD70187
:1014A00050968D919C915197DC01ED91FC910680B5
:1014B000F781E02D19958C01F70180899189DC0174
:1014C000ED91FC910480F581E02D19956C010230BD
:1014D00011057CF080ECD6018D938D0160E070E009
:1014E000CD010E94C51C800F911FBC016C197D09A4
:1014F00002C06EEF7FEF16161706CCF4C7010E94EC
:101500007F068C01F701892B69F44681578160853C
:101510007185C7018E960E94570681E0D7019D967E
:101520008C9324C0168A108E178A15A61FC00DEF43
:101530001FEF1CC000E010E019C09A8A898ADC8A7B
:10154000CB8AF70184899589DC01ED91FC910084B7
:10155000F185E02D1995800F911FDC011296ED9118
:10156000FC911397CE0141961995B6CEC8016696A7
:101570000FB6F894DEBF0FBECDBFDF91CF911F91A4
:101580000F91FF90EF90DF90CF90BF90AF909F9022
:101590008F907F906F905F904F903F902F90089525
:1015A0002091360990E0233311F40C9601C048963F
:1015B000982F990F990F990F80E008950895CF9370
:1015C000DF931F92CDB7DEB76983DC01ED91FC910B
:1015D0000280F381E02D41E050E0BE016F5F7F4F5C
:1015E00019950F90DF91CF910895FC01818D928D17
:1015F0000895FC019485FB018485981303C081E064
:10160000983008F080E00895FF920F931F93CF93D6
:10161000DF931F921F92CDB7DEB7F82E22E030E0A5
:10162000AE014F5F5F4F66E270E00E94C51A09810C
:101630001A8110270127102722E030E0AE014F5F0A
:101640005F4F66E270E08F2D0E94C51A89819A81F2
:101650009827892798270817190711F08C01ECCFD4
:10166000C8010F900F90DF91CF911F910F91FF90C4
:1016700008950F931F93CF93DF931F921F92CDB7BF
:10168000DEB7FC0124852830E0F48C01CE01019600
:101690000E94623089819A810E94D81A22E030E04B
:1016A000AE014F5F5F4F60E170E0F80184850E94FA
:1016B000C51A09811A811027012710270E94D71AFD
:1016C00002C000E010E0C8010F900F90DF91CF91B1
:1016D0001F910F9108950F931F93CF93DF931F9244
:1016E0001F92CDB7DEB7FC0124852830E0F48C01D1
:1016F000CE0101960E94623089819A810E94D81A97
:1017000022E030E0AE014F5F5F4F64E070E0F8012F
:1017100084850E94C51A09811A8110270127102784
:101720000E94D71A02C000E010E0C8010F900F908D
:10173000DF91CF911F910F910895E091E008F09112
:10174000E10890818091DF08892B80830895E091E2
:10175000E008F091E10890818091DF08809589236D
:1017600080830895CF93DF931F92CDB7DEB789832F
:1017700041E050E0BE016F5F7F4F80E090E00E944B
:101780002D230F90DF91CF9108958EBD00000DB4F1
:1017900007FEFDCF8EB50895EF92FF921F93CF9372
:1017A000DF931F921F92CDB7DEB7182F22E030E0F3
:1017B000AE014F5F5F4F60E270E00E94C51AE980A2
:1017C000FA80FE24EF24FE2422E030E0AE014F5FD9
:1017D0005F4F60E270E0812F0E94C51A89819A8173
:1017E000982789279827E816F90611F07C01ECCF95
:1017F00087E0189FF0011124E251F74FF582E4824F
:10180000C7010F900F90DF91CF911F91FF90EF9044
:1018100008951F93CF93DF931F921F92CDB7DEB72A
:10182000182FCE0101960E94623089819A810E9410
:10183000D81A812F0E94D00A27E0129FF0011124AC
:10184000E251F74F22813381377041E050E0BE0111
:101850006F5F7F4F820F931F0E94A0220E94D71AB2
:1018600089810F900F90DF91CF911F910895FC0116
:10187000808D883040F4218D328D232B21F00E9401
:10188000090C90E008958FEF9FEF0895EF92FF927B
:101890000F931F93CF93DF931F921F92CDB7DEB7A5
:1018A000482F87E0489F90011124F901E251F74F3A
:1018B0007F01808191810097B9F4142FCE010196A8
:1018C0000E94623089819A810E94D81A812F0E94D9
:1018D000040B8C010E94D71AF70186819801281BFE
:1018E0003109C901318320830F900F90DF91CF918F
:1018F0001F910F91FF90EF9008951F93CF93DF9367
:101900001F921F92CDB7DEB7182FCE0101960E940D
:10191000623089819A810E94D81A68E070E0812F34
:101920000E9490220E94D71A0F900F90DF91CF91C2
:101930001F9108951F93CF93DF931F921F92CDB7EE
:10194000DEB7182FCE0101960E94623089819A81FC
:101950000E94D81A60E170E0812F0E9490220E94BC
:10196000D71A0F900F90DF91CF911F910895CF92CA
:10197000DF92EF92FF920F931F93CF93DF9300D0EC
:1019800000D0CDB7DEB78C016B017A01FC01808DF0
:10199000883010F40E949A0C8EEA93E09A8389832F
:1019A000F60182819381A481B5818B839C83AD8371
:1019B000BE83B701CE0101960E948F2AF801808F65
:1019C000883030F4F586E486128E118E81E001C0F5
:1019D00080E026960FB6F894DEBF0FBECDBFDF9134
:1019E000CF911F910F91FF90EF90DF90CF900895CE
:1019F000CF93DF93FC01808D883028F4EF010E94A3
:101A00009A0C88E0888FDF91CF910895DA01909148
:101A1000E208E92FF0E0FE2FEE27E60FF71F90E037
:101A2000982F8827A901BD018E0F9F1F0C942D238D
:101A30007F928F929F92AF92BF92CF92DF92EF925E
:101A4000FF920F931F93CF93DF931F921F92CDB7F7
:101A5000DEB7782E8B014A01590122E030E0AE0159
:101A60004F5F5F4F64E270E00E94C51AE980FA8020
:101A7000FE24EF24FE24E00EF11E97013770409102
:101A80003609072D10E0C801433311F4089601C050
:101A90004096982F8827990F990F990F820F931FBF
:101AA000473319F4A501B40120C0A9014A0D5B1DFB
:101AB00041305840B8F360E078E06B01C21AD30AB5
:101AC000A601B4010E942D23A5014C195D09B401A2
:101AD0006C0D7D1D80913609833339F5085F1F4FEA
:101AE000902F990F990F990F80E00E942D23EA0CF7
:101AF000FB1CF982EA8222E030E0AE014F5F5F4FCB
:101B000064E270E0872D0E94060D0F900F90DF9128
:101B1000CF911F910F91FF90EF90DF90CF90BF90EA
:101B2000AF909F908F907F900895005F1F4FD8CF08
:101B30007F928F929F92AF92BF92CF92DF92EF925D
:101B4000FF920F931F93CF93DF931F921F92CDB7F6
:101B5000DEB77C014B01742EC52EFC01A688B78828
:101B6000D08CCE0101960E94623089819A810E94B8
:101B7000D81A8D2D0E94CC0B072D1C2D8017910794
:101B800008F48C019801A401B5018D2D0E94180D57
:101B90000E94D71AF70186899789800F911F978B2A
:101BA000868BC8010F900F90DF91CF911F910F91FD
:101BB000FF90EF90DF90CF90BF90AF909F908F906D
:101BC0007F900895CF93DF931F921F92CDB7DEB71A
:101BD00079836A8322E030E0AE014F5F5F4F60E1BE
:101BE00070E00E94060D0F900F90DF91CF91089545
:101BF000CF93DF931F921F92CDB7DEB779836A83AD
:101C000022E030E0AE014F5F5F4F64E070E00E9481
:101C1000060D0F900F90DF91CF910895DF92EF9214
:101C2000FF920F931F93CF93DF931F921F92CDB715
:101C3000DEB7FB01DC0157961C921E92569722815B
:101C4000211109C02381211106C02481211103C063
:101C50002581222309F141155105F1F07A018F0107
:101C6000FC01D08CCE0101960E94623089819A815C
:101C70000E94D81AA8014E5F5F4F24E030E06CE06C
:101C800070E08D2D0E94060DB7018D2D0E94E20D92
:101C90000E94D71A81E001C080E090E00F900F9081
:101CA000DF91CF911F910F91FF90EF90DF900895FA
:101CB000CF93DF931F92CDB7DEB79091E208292F23
:101CC00030E0322F2227260F371F90E0982F8827E9
:101CD000498341E050E0BE016F5F7F4F820F931F49
:101CE0000E942D230F90DF91CF910895CF93DF9322
:101CF0001F92CDB7DEB741E050E0BE016F5F7F4F6E
:101D00000E94A02289810F90DF91CF91089580E0F9
:101D100090E00C94760E9091E208292F30E0322F5B
:101D20002227260F371F90E0982F8827820F931FB6
:101D30000C94760E8F929F92BF92CF92DF92EF9289
:101D4000FF920F931F93CF93DF93CDB7DEB72A9700
:101D50000FB6F894DEBF0FBECDBF90913609992320
:101D600009F492C0933319F028E0B22E02C094E037
:101D7000B92E6B01082FCE0101960E946230898135
:101D80009A810E94D81A9E012F5F3F4F7901490125
:101D900010E063E070E0812F0E948B0EF4018193CC
:101DA0004F018823C9F01F5FB112F3CF10E0F70194
:101DB00091917F019D3159F0983149F09A519230BB
:101DC00030F01F5FB112F3CF0E94D71A5DC060E1FF
:101DD00070E0812F0E949022E12EF12C83EE93E09F
:101DE0000197F1F7402F60E070E0812F0E94580EBC
:101DF0004FEF62E070E0812F0E94580EC114D104B1
:101E000011F0B60113C08091000290910102019679
:101E10008115F0EC9F0710F480E090EC90930102A4
:101E2000809300026091000270910102812F0E9454
:101E3000F80D61E070E0812F0E94902227E02E9D36
:101E4000C0012F9D900D11249C012251374F790123
:101E5000F9011182108222E030E0AE01475F5F4F4E
:101E600068E270E0812F0E94C51A89859A859827BB
:101E700089279827F701938382831682158214821B
:101E80000E94D71A812F01C088E02A960FB6F894D5
:101E9000DEBF0FBECDBFDF91CF911F910F91FF909D
:101EA000EF90DF90CF90BF909F908F9008950F9309
:101EB0001F93CF93DF93EC018B01888D883010F452
:101EC0000E949A0CB80182E00E949A0E888F883096
:101ED00030F41D870C871A8E198E81E001C080E0D6
:101EE000DF91CF911F910F910895FF920F931F9350
:101EF000CF93DF931F921F92CDB7DEB7F82ECE019E
:101F000001960E94623089819A810E94D81A8F2D91
:101F10000E94CC0B8C0163E070E08F2D0E948B0E31
:101F2000F82E0E94D71A87E1F81631F08CE1F816E6
:101F300019F080E090E001C0C8010F900F90DF9190
:101F4000CF911F910F91FF9008954F925F927F92D2
:101F50008F929F92AF92BF92CF92DF92EF92FF92B9
:101F60000F931F93CF93DF931F921F92CDB7DEB7CE
:101F7000782E6B014A01A82EB12C27E0829FC00168
:101F80001124AC014251574F7A01FA0100811181AD
:101F9000CE0101960E94623089819A810E94D81AEE
:101FA0000815190554F4872D0E94040BF7012681AA
:101FB0008C01021B11091183008301151105A9F47D
:101FC00063E070E0872D0E948B0E843109F480C09D
:101FD000882309F47DC001E010E08C3111F400E0A9
:101FE00010E011950195110973C0801691060CF44B
:101FF000840187E08A9DF0018B9DF00D1124E25150
:10200000F74FE280F380C114D10459F12701F7E0C2
:102010005F22872D0E94D00A840D951D20913609DC
:10202000273319F4A801B6011AC09801240D351DF3
:1020300021303840B8F320E038E049018418950891
:10204000A401B6010E94A0222601480C591C680177
:10205000C818D908872D0E94D00AA601B2010E9493
:10206000A022E00EF11E87E08A9DF0018B9DF00D0D
:102070001124E251F74FF382E28280819181801B2B
:10208000910B918380832681A801420F511D4A3F05
:10209000510510F4892BD9F487E08A9DF0018B9DBE
:1020A000F00D1124E251F74F1682F982EA8222E004
:1020B00030E0AE014F5F5F4F68E270E0872D0E9415
:1020C000060D60E470E0872D0E94902201C04683D7
:1020D0000E94D71AC8010F900F90DF91CF911F91E6
:1020E0000F91FF90EF90DF90CF90BF90AF909F90B7
:1020F0008F907F905F904F900895CF93DF93FC0176
:10210000218D328D2115310519F48FEF9FEF11C00C
:10211000EC014217530708F0A901888D0E94A50F12
:102120001816190694F7298D3A8D281B390B3A8F0A
:10213000298FDF91CF9108950F931F93CF93DF9352
:102140001F92CDB7DEB7FC01218D328D232B61F0BC
:102150008C0141E050E0BE016F5F7F4F808D0E9497
:10216000A50F181619061CF08FEF9FEF08C0F80195
:10217000818D928D0197928F818F898190E00F9050
:10218000DF91CF911F910F9108950F931F93CF93DC
:10219000DF93CDB7DEB728970FB6F894DEBF0FBE3A
:1021A000CDBF8C01D80159964D915C915A9741153C
:1021B000510551F0ED91FC91048CF58DE02D60E01E
:1021C00070E0C8011995EECFF801808D0E94460C91
:1021D000892B51F148E050E0BE016F5F7F4FD8017D
:1021E00058968C910E94A50F18161906FCF4D80178
:1021F000509684E0FE01319601900D928A95E1F7A8
:102200008D8190E0982F88272E81820F911DF801F3
:10221000958B848B8F8190E0982F88272885820F5B
:10222000911D928F818F02C080E090E028960FB6BA
:10223000F894DEBF0FBECDBFDF91CF911F910F91FC
:1022400008951F93CF93DF931F921F92CDB7DEB7F0
:10225000182FCE0101960E94623089819A810E94D6
:10226000D81A63E070E0812F0E948B0E182F0E9415
:10227000D71A812F0F900F90DF91CF911F91089562
:102280001F93CF93DF931F921F92CDB7DEB7FC0150
:10229000108DCE0101960E94623089819A810E9440
:1022A000D81A60E270E0812F0E94902262E070E014
:1022B000812F0E948B0E84FD1CC062E070E0812F94
:1022C0000E948B0E83FF0AC048E162E070E0812F1C
:1022D0000E94580E0E94D71A80E014C00E94D71A9C
:1022E000CE0101960E94623089819A810E94D81A9B
:1022F000DDCF40E162E070E0812F0E94580E0E9425
:10230000D71A81E090E00F900F90DF91CF911F914D
:102310000895AF92BF92CF92DF92EF92FF920F9308
:102320001F93CF93DF93CDB7DEB7AF970FB6F89477
:10233000DEBF0FBECDBF7C015B016A010EEA13E078
:102340001A8309831B821C821D821E82CE0109967C
:102350000E9406061BA70AA71CA61DA61EA61FA64E
:102360008091DC099091DD09A091DE09B091DF092F
:102370008EA39FA3A8A7B9A78B839C83AD83BE839D
:1023800018861F82AE01465D5F4FB501CE010196F2
:102390000E94683081309105B1F4D701ED91FC9134
:1023A0000488F589E02D1DA30CA38CA59DA5AEA5E1
:1023B000BFA58EA39FA3A8A7B9A7A601BE016C5D68
:1023C0007F4FC7011995AF960FB6F894DEBF0FBEC9
:1023D000CDBFDF91CF911F910F91FF90EF90DF90D4
:1023E000CF90BF90AF900895EF92FF920F931F93FD
:1023F000CF93DF9300D01F92CDB7DEB78C017B0166
:10240000FB018485883050F08EEA93E0F8019183D7
:10241000808312821382148215821BC0CE01019622
:102420000E94623089819A810E94D81A24E030E0AB
:10243000AE014F5F5F4F6CE070E0F70184850E9452
:10244000C51A0E94D71ABE016F5F7F4FC8010E9454
:102450002422C8010F900F900F900F90DF91CF9121
:102460001F910F91FF90EF9008957F928F929F920E
:10247000AF92BF92CF92DF92EF92FF920F931F9392
:10248000CF93DF93CDB7DEB7A6970FB6F894DEBF34
:102490000FBECDBF8C01762E942E852E20E2B22E5B
:1024A000CE0101967C01FC012B2D11922A95E9F7B2
:1024B0008EEA93E09AA389A38FEF8BA38CA38DA3BD
:1024C0008EA3680183E4C80ED11C43E450E0BE0132
:1024D0006F5D7F4FC6010E940E0E019609F4B9C0D0
:1024E00081E089838A8386E0A82EAB821C82F80172
:1024F00064817581868197810E94693F6D837E83A7
:102500008F83988789869A8680E890E09C878B875E
:102510004CE150E0B701C6010E94980DF7012B2D48
:1025200011922A95E9F7480188E0880E911CF40180
:10253000D70101900D92AA94E1F740E150E0B70174
:10254000C6010E94980DF7011192BA94E9F796E03E
:10255000A92EB12C40E250E0B701C6010E94980DAF
:10256000F1E0AF1AB108B1F783E6898392E89A8364
:1025700093E59B838C8385E38D8381E08E837F82CB
:102580009DE3988797E099878A8786E0F401DE01CA
:102590001B9601900D928A95E1F78CE0898B8A8BCE
:1025A0006CEB77E0CE0143960E94D442F80163853C
:1025B000CE0149960E946727F8016485CE014B96AB
:1025C0000E946727F8016585CE014D960E94672716
:1025D0004EE150E0B701C6010E94980DF3E07F1272
:1025E0001EC082E3898384E08A83F80196859B83F9
:1025F00097859C8390899D8391899E8396E39F8391
:102600008887828D8987838D8A87848D8B87858D46
:102610008C874CE050E0B701C6010E94980D87E31B
:10262000898386E08A8391E09B8393E09C838D83FA
:102630008FE08E838AE38F838BE388878FEF898790
:1026400049E050E0B701C6010E94980DC6010E9402
:102650004011A6960FB6F894DEBF0FBECDBFDF9136
:10266000CF911F910F91FF90EF90DF90CF90BF908F
:10267000AF909F908F907F9008952F923F924F92AE
:102680005F926F927F928F929F92AF92BF92CF9202
:10269000DF92EF92FF920F931F93CF93DF9300D0BF
:1026A00000D0CDB7DEB78C010E943D3D2FEC37E066
:1026B00040E050E00E94EA3EDC01CB010196A11D02
:1026C000B11DF80184839583A683B78380839183AA
:1026D000A283B3835801F3E4AF0EB11CC5010E947D
:1026E000F80C64E470E0C5010E94570F882309F4D8
:1026F00036C10E94682C2B013C01812C912CC80111
:102700008E5B9F4F9E838D8348EEC42E43E0D42E74
:10271000E12CF12C52E0252EAD81BE818C918330CD
:1027200009F404C1811120C0F80184819581A6813A
:10273000B7810196A11DB11D84839583A683B783BC
:102740000E94682C6419750986099709A7019601EA
:102750000E941C3FA90161E0C8010E94351281E07E
:10276000AD81BE818C93CAC08430F9F4F8018481B4
:102770009581A681B7810196A11DB11D84839583A2
:10278000A683B7830E94682C641975098609970986
:10279000A70196010E941C3FA90163E0C8010E94A5
:1027A0003512AD81BE812C92A9C0813059F5F80156
:1027B00042AD53AD64AD75AD9E012F5F3F4FC80173
:1027C0000E949F28382EF2E08F1392C089819A814F
:1027D000AB81BC81F80184839583A683B7830E9473
:1027E000682C6419750986099709A70196010E944A
:1027F0001C3FA90163E0C8010E943512AD81BE8172
:102800003C927CC0823009F079C0F80142AD53ADF2
:1028100064AD75AD9E012F5F3F4FC8010E949F2898
:10282000382EF5E08F135DC0E3E0AD81BE81EC93FF
:10283000F80182A193A1A4A1B5A1892B8A2B8B2B8E
:1028400041F484E893E0A0E0B0E082A393A3A4A3C2
:10285000B5A3F80186A197A1A0A5B1A5892B8A2BC4
:102860008B2B61F482A193A1A4A1B5A1B695A795E4
:102870009795879586A397A3A0A7B1A7F80182A5EE
:1028800093A5A4A5B5A5892B8A2B8B2BA9F482A18E
:1028900093A1A4A1B5A1AC01BD0123E076956795F4
:1028A000579547952A95D1F7841B950BA60BB70B27
:1028B00082A793A7A4A7B5A7F80186A197A1A0A571
:1028C000B1A586A797A7A0ABB1AB82A593A5A4A5F8
:1028D000B5A582AB93ABA4ABB5AB88248394912C04
:1028E0000DC0F6E08F1304C0AD81BE811C9206C0FE
:1028F000BFEF3B1203C0ED81FE811082F1E08F1625
:10290000910409F409CF0E94682CDC01CB018419E1
:102910009509A609B709F80126A937A940AD51AD17
:10292000281739074A075B0708F0F6CEC5010E9451
:10293000F80CF80184819581A681B7810196A11DCB
:10294000B11D84839583A683B7830E94682CF80108
:10295000FE966083718382839383C40102C080E00A
:1029600090E026960FB6F894DEBF0FBECDBFDF9184
:10297000CF911F910F91FF90EF90DF90CF90BF907C
:10298000AF909F908F907F906F905F904F903F900F
:102990002F9008957F928F929F92AF92BF92CF9285
:1029A000DF92EF92FF920F931F93CF93DF938C01EF
:1029B0006A017B01722E9A01AB01C701B6010E9428
:1029C0009E40882319F063EC77E027C04601570149
:1029D000E894B7F82FEF3FEF4FE75FE7C501B40189
:1029E0000E949E4081110DC02FEF3FEF4FE75FE740
:1029F000C501B4010E94C63D18161CF467EC77E0CF
:102A00000CC02FEF3FEF4FE75FE4C701B6010E9414
:102A10009940181694F46BEC77E0C801DF91CF91E0
:102A20001F910F91FF90EF90DF90CF90BF90AF90EC
:102A30009F908F907F900C9466212FEF3FEF4FE790
:102A40005FECC701B6010E94C63D87FDE4CF20E0E0
:102A500030E0A901C701B6010E94C63D87FF0AC048
:102A60006DE2C8010E94B41FEC01F7FAF094F7F888
:102A7000F09402C0C0E0D0E0B12C60E070E080E0F3
:102A80009FE37B1441F020E030E040E251E40E94FB
:102A9000F13FB394F6CFA70196010E94853F6B01E9
:102AA0007C010E946A404B015C012AE0AB01BC0141
:102AB000C8010E947B21C80FD91F7720C1F1C50131
:102AC000B4010E94CB3D9B01AC01C701B6010E943D
:102AD000843F6B017C016EE2C8010E94B41FC80FE5
:102AE000D91F20E030E040E251E4C701B6010E9466
:102AF0002C3E4B015C010E946A406B01E12CF12CE1
:102B00002AE0B701A601C8010E947B21C80FD91F86
:102B1000C701B6010E94CB3D9B01AC01C501B401C8
:102B20000E94843F6B017C017A947110DACFCE0150
:102B3000DF91CF911F910F91FF90EF90DF90CF9099
:102B4000BF90AF909F908F907F900895CF93DF9329
:102B5000AB01BC0125E087E399E00E94CA14EC01B7
:102B600087E399E00E940E228C0F9D1FDF91CF9189
:102B70000895FC018081918193838283868197816E
:102B8000958384838485807884879F01285F3F4F65
:102B900031F0806284871186108613861286B9010F
:102BA000CF010895CF93DF9300D000D0CDB7DEB72B
:102BB0007E836D839E012B5F3F4F3A8329831C8266
:102BC0001B82FC01608171816115710529F0CE01C4
:102BD00001960E94D40506C06CE977E0CE0101960B
:102BE0000E948A1E8B819C8126960FB6F894DEBFC8
:102BF0000FBECDBFDF91CF910895AF92BF92CF921C
:102C0000DF92EF92FF920F931F93CF93DF93CDB795
:102C1000DEB7C754D1090FB6F894DEBF0FBECDBFE3
:102C20000091E4081091E508D80156968C91811125
:102C300099C189E29AE00E942E194BE557E06FECAA
:102C400077E089E29AE00E94A21E66EE77E087E3D1
:102C500099E00E94C5326FEC77E087E399E00E942B
:102C6000122281E3E5E1F3E0DE01119601900D927D
:102C70008A95E1F769EF77E0CE01C2960E94512173
:102C8000BE016E5C7F4FCE01CC960E94372165E07D
:102C900078E0CE01CC960E94F820BC01CE018E5B7C
:102CA0009F4F0E943721CE01CC960E943221CE0147
:102CB000C2960E9432212496EEACFFAC249700917C
:102CC000E4081091E508F801468157816085718517
:102CD000848595859BAB8AAB1CAA1DAA1EAA1FAA38
:102CE00018AE19AE1AAE1BAECE01C2960E945706A0
:102CF000D80156968C915697811113C156961C9205
:102D000056979D961C929D978CE090E058969C93C8
:102D10008E93579750968D919C915197DC01ED9130
:102D2000FC910680F781E02D19955C01F8018089FE
:102D30009189DC01ED91FC910480F581E02D1995DC
:102D40006C019DAF8CAFE114F10449F0F7010190E3
:102D50000020E9F73197CF018E199F0902C080E06A
:102D600090E0BC01645F7F4F9C01235F3F4F2038A0
:102D7000310514F40E9606C02115304414F40F9654
:102D800001C04096A816B906F4F180E1F6018083EF
:102D90008CAD9DAD01969DAF8CAF0E94C51C2CAD36
:102DA0003DAD820F931F9DAF8CAF60E078E0CE0108
:102DB000CC960E94461CECADFDAD84E08083ECAD6A
:102DC000FDADCF0101969DAF8CAF82E081838CADCC
:102DD0009DAD01969DAF8CAF6FE070E0CE01CC96BB
:102DE0000E94261C2E2DF986E88639854A855B854A
:102DF0006C857D85CE01CC960E946D1C6CAD7DAD41
:102E00006C197D0902C06EEF7FEF161617060CF0E5
:102E10008BC0C8010E947F06009709F088C0AE01F0
:102E20004E5C5F4F62E070E0C8010E942130009765
:102E300009F07DC0D80152968D919C915397DC0189
:102E4000ED91FC910680F781E02D1995F8018289BA
:102E50009389DC01ED91FC910480F581E02D1995B9
:102E6000FC012081207F2032E1F47C01FFEFEF1A8A
:102E7000FF0AF092DE08E092DD08CE01CC960E94B7
:102E8000DF2F2CAD3DAD2230310584F0F701E80F86
:102E9000F91FF080F0FAFF24F0F8218181E090E042
:102EA00007C0F12C2FEF80E090E002C0F12C2FEF53
:102EB000019709F03EC081E0211180E0D8015696CB
:102EC0008C935697211129C057962D913C91589774
:102ED000A8EEB3E00E943E3FAB01BC01C801499699
:102EE0000E945706F8012789308DA8EEB3E00E94B2
:102EF0003E3FAB01BC01C80183960E945706F1100A
:102F00000CC0D80154968D919C915597DC01ED91A0
:102F1000FC910684F785E02D1995F80186898111C9
:102F20000BC00EEF1FEF0AC00DEF1FEF07C08C01A3
:102F300005C00CEF1FEF02C000E010E00115110505
:102F400059F060E178E087E399E00E94C532B8016A
:102F500087E399E00E94FD32CE018E5B9F4F0E9475
:102F6000322128C0D8011C968D919C911D979A837F
:102F700089831B821C821D821E821F8218861986ED
:102F80001A8640E355E760E070E0CE0101960E94AA
:102F900057061AAABE016E5C7F4FC8010E942C071B
:102FA000F8018689882331F0CE0101960E943B0604
:102FB000882379F3C95BDF4F0FB6F894DEBF0FBEED
:102FC000CDBFDF91CF911F910F91FF90EF90DF90D8
:102FD000CF90BF90AF900895CF93DF931F92CDB75E
:102FE000DEB76983DC01ED91FC910280F381E02D75
:102FF00041E050E0BE016F5F7F4F19950F90DF9168
:10300000CF91089520E030E0261737078CF4E09147
:10301000DD08F091DE08AF014F5F5F4F5093DE088F
:103020004093DD084081FC0140832F5F3F4FECCF90
:10303000CB010895CF93DF93EC018C819D81DC015E
:10304000ED91FC910680F781E02D19958A819B8195
:10305000DC01ED91FC910688F789E02D199591E04E
:10306000811101C090E0892FDF91CF910895CF9217
:10307000DF92EF92FF920F931F93CF93DF93EC01B8
:103080007B016A01EA81FB810483158326833783F0
:10309000E881F9810084F185E02D1995882399F064
:1030A0008A819B81DC01ED91FC910280F381E02D0E
:1030B000A601B701DF91CF911F910F91FF90EF9083
:1030C000DF90CF9019948FEF9FEFDF91CF911F91F9
:1030D0000F91FF90EF90DF90CF900895CF92DF9205
:1030E000EF92FF920F931F93CF93DF93EC017B013D
:1030F0006A01EA81FB810483158326833783E88193
:10310000F9810084F185E02D1995882399F08A8151
:103110009B81DC01ED91FC910288F389E02DA601F1
:10312000B701DF91CF911F910F91FF90EF90DF904A
:10313000CF9019948FEF9FEFDF91CF911F910F9157
:10314000FF90EF90DF90CF9008958EE591E0089585
:10315000029608950895CB010895EF92FF920F9380
:103160001F93CF93DF938C01EC01E12CF12CD8015C
:10317000ED91FC910480F581E02DC8011995E816C8
:10318000F906BCF46A817B816115710569F0D8018B
:10319000ED91FC910288F389E02DA701C8011995F2
:1031A0001B821A821D821C82BFEFEB1AFB0A249637
:1031B000DECFDF91CF911F910F91FF90EF90089597
:1031C00002960895EF92FF920F931F93CF93DF9390
:1031D0007C018C01C0E0D0E0D701ED91FC9104802E
:1031E000F581E02DC7011995C817D90754F40C5F74
:1031F0001F4FF801329780819181892B21F0219610
:10320000EBCF81E001C080E0DF91CF911F910F9162
:10321000FF90EF900895CF93DF93EC018C85883079
:10322000C8F40E942111843181F0882371F0883123
:1032300061F08C3161F4E881F9810084F185E02D41
:10324000CE01199521E0892B19F420E001C021E07D
:10325000822F01C080E0DF91CF910895CF92DF925D
:10326000EF92FF92CF93DF93EC018C85883038F595
:103270000E947D0C0E94682C6B017C018C850E9451
:1032800021118823D1F061E070E080E090E00E949D
:103290002E2C0E94682CAB01BC014C195D096E09F3
:1032A0007F098D859E85A0E0B0E0481759076A0721
:1032B0007B0720F38C850E949A0C88E08C87DF9135
:1032C000CF91FF90EF90DF90CF900895CF93DF9351
:1032D000EC018C85883060F40E942111873111F057
:1032E0008C3131F48C850E94750F8115984088F3DC
:1032F000DF91CF910895FC018485883010F40C94FF
:10330000750F80E090E00895CF93DF931F92CDB7C3
:10331000DEB741E050E0BE016F5F7F4FFC01848566
:103320000E94A50F181619061CF4898190E002C0AE
:103330008FEF9FEF0F90DF91CF910895FC0184856F
:10334000883010F40C94A50F80E090E00895CF939E
:10335000DF93FC012485283018F08FEF9FEF0EC01B
:10336000EC010190F081E02D0084F185E02D1995AC
:10337000892B99F38C850E94090C90E0DF91CF9105
:103380000895FC018485883010F40C94460C80E08C
:1033900090E00895FC01828193810C9412228F9217
:1033A0009F92AF92BF92CF92DF92EF92FF920F93D4
:1033B0001F93CF93DF937C014B018C01C0E0D0E0E1
:1033C000D701ED91FC910480F581E02DC70119959D
:1033D000C817D9077CF5F801A280B380CE01019609
:1033E0006C01A114B10411F1B401C5010E94CB42DA
:1033F000892BE1F4D701ED91FC910288F389E02D4E
:10340000AE01B501C7011995CC0FDD1FCC0FDD1F33
:10341000CE0DDF1D1B821A82F601EE0FFF1FEE0F8D
:10342000FF1FEE0DFF1D1182108204C0E6010C5F2C
:103430001F4FC6CFDF91CF911F910F91FF90EF905B
:10344000DF90CF90BF90AF909F908F9008956F9234
:103450007F928F929F92AF92BF92CF92DF92EF9224
:10346000FF920F931F93CF93DF938C016B013A016F
:103470005C01C0E0D0E0EE24EA94FE2CD801ED918E
:10348000FC910480F581E02DC8011995C817D90772
:103490000CF03EC0F501828093808114910489F183
:1034A000B601C4010E94CB42892B69F5D801ED9188
:1034B000FC910288F389E02DAE01B401C801199591
:1034C000D801ED91FC910088F189E02DAE01B601A3
:1034D000C8011995009711F480E03EC0FE01EE0F7F
:1034E000FF1FEE0FFF1FE00FF11F938382832196D2
:1034F000CC0FDD1FCC0FDD1FC00FD11F798268827A
:103500002AC0F7FC7E012196B4E0AB0EB11CB6CF09
:10351000F7FCE2CFD801ED91FC910088F189E02D14
:10352000A701B601C80119950097B1F2F701EE0F96
:10353000FF1FEE0FFF1FE00FF11F93838283BFEF8A
:10354000EB1AFB0AEE0CFF1CEE0CFF1CF801EE0D53
:10355000FF1D7182608281E0DF91CF911F910F91F9
:10356000FF90EF90DF90CF90BF90AF909F908F90A3
:103570007F906F9008950C943B410C943B410C94C8
:103580003B410C943B410C943B41DA019091E208A1
:10359000E92FF0E0FE2FEE27E60FF71F90E0982FBF
:1035A0008827A901BD018E0F9F1F0C94A0220895AA
:1035B0008CBD9DBD08956F927F928F929F92AF9226
:1035C000BF92CF92DF92EF92FF921F93CF93DF9340
:1035D0001F921F92CDB7DEB7FC011485183008F09A
:1035E00061C06A014130F8E05F0718F0C12C28E0A3
:1035F000D22E7A013B015C01CE0101960E9462301D
:1036000089819A810E94D81A812F0E94CC0B4C018B
:1036100063E070E0812F0E948B0E873111F08C31B6
:1036200021F48C149D0440F302C0C12CD12CCE0196
:1036300001960E94623089819A810E94D81A96016F
:10364000A30160E070E0812F0E94180D60E270E03D
:10365000812F0E94902262E070E0812F0E948B0EE9
:1036600084FD16C063E070E0812F0E948B0E8111F3
:1036700006C081E090E0F5019383828313C0CE0100
:1036800001960E94623089819A810E94D81AE3CF04
:1036900040E162E070E0812F0E94580ECD2849F38E
:1036A000C70102C080E090E00F900F90DF91CF91B2
:1036B0001F91FF90EF90DF90CF90BF90AF909F90C1
:1036C0008F907F906F900895AF92BF92CF92DF92CC
:1036D000EF92FF920F931F93CF93DF931F921F924E
:1036E000CDB7DEB78C016B015A01FC0184858830AF
:1036F00058F40E942111882321F0F80184850E944A
:103700007D0C88E0F8018487F60182819381A48191
:10371000B5810097A105B10509F45BC08F3F9F4FAC
:10372000AF4FBF4F09F455C060E070E081E20E94E6
:103730009A0EF82EF8018487F7E0F81708F449C0CC
:10374000CE0101960E94623089819A810E94D81A26
:10375000A6014E5F5F4F24E030E06CE070E08F2DFB
:103760000E94060DB5018F2D0E94E20D64E070E00D
:103770008F2D0E9490220E94682C6B017C01F80121
:1037800084850E942111873139F18C3129F18823F8
:1037900001F10E94682CAB01BC014C195D096E0956
:1037A0007F09F80185859685A0E0B0E0841795072C
:1037B000A607B70738F061E070E080E090E00E9473
:1037C0002E2CDDCFF80184850E949A0C88E0F80148
:1037D000848780E090E002C081E090E00F900F903D
:1037E000DF91CF911F910F91FF90EF90DF90CF90DD
:1037F000BF90AF9008950F931F93CF93DF931F92C5
:103800001F92CDB7DEB78C018EEA93E0F801918369
:1038100080831282138214821582CE0101960E9447
:10382000623089819A810E94D81AB8016E5F7F4FF9
:1038300044E050E08FE090E00E94A022C8010F9089
:103840000F90DF91CF911F910F910895CF93DF9348
:10385000FC01CB01A081B1819B0177FF02C0215007
:103860003F4F3C93C081D1819E012F5F3F4F3183F9
:10387000208360E071E00E944D3F898380819181C7
:10388000019691838083DF91CF910895EF92FF920B
:103890000F931F93CF93DF938C017B01EB01099072
:1038A0000020E9F72197C61BD70BBE010E94261CFA
:1038B000AE01B701F801808191810E94BB42F801FD
:1038C00080819181C80FD91FD183C083DF91CF91AF
:1038D0001F910F91FF90EF900895EF92FF920F9339
:1038E0001F93CF93DF9300D000D0CDB7DEB72983ED
:1038F0003A834B835C836D837E83EB80FC801E1454
:103900001F0404F58C01B7010E94261C6D817E8185
:10391000A701F801808191810E94BB42F80180815A
:103920009181E80EF91EF182E08226960FB6F89496
:10393000DEBF0FBECDBFDF91CF911F910F91FF90E2
:10394000EF90089569817A816115710571F026966D
:103950000FB6F894DEBF0FBECDBFDF91CF911F91A0
:103960000F91FF90EF900C94461C60E070E026965B
:103970000FB6F894DEBF0FBECDBFDF91CF911F9180
:103980000F91FF90EF900C94261C0F931F93CF93F1
:10399000DF939B01EC01E0E0F0E000E810E0C901FA
:1039A000B8010E944D3F982F37FF02C021583F4F6A
:1039B000220F232F221F330B1216130614F4982FF5
:1039C000906831969993121613064CF3CF01DF914C
:1039D000CF911F910F910895EF92FF920F931F9334
:1039E000CF93DF931F921F92CDB7DEB7FC018A0100
:1039F00079018FEFE81AF80AD9019C9193FB882787
:103A000080F9DB018C9392959F709083F092DE0891
:103A1000E092DD08CE0101960E94DF2F29813A81D4
:103A20002230310584F0F701E80FF91F9081892FCA
:103A300090E0982F88272181820F911DF8019183B2
:103A4000808381E090E00F900F90DF91CF911F91E4
:103A50000F91FF90EF900895EEE1E49F9001E59FB4
:103A6000300D1124DB011E96ED91FC911F97E20FA2
:103A7000F31F2EE1DC0101900D922A95E1F70895E4
:103A80004F925F926F927F928F929F92AF92BF926E
:103A9000CF92DF92EF92FF920F931F93CF93DF931A
:103AA000CDB7DEB76E970FB6F894DEBF0FBECDBFB1
:103AB0008C01A12CB12CC12CD12C7601F801808174
:103AC0009181A816B906A4F4A501B801CE0101960A
:103AD0000E942C1D2B853C854D855E85C701B60156
:103AE0000E94853F6B017C01FFEFAF1ABF0AE6CF52
:103AF00020E030E048EC52E4F8016681778180856F
:103B000091850E942C3E0E9463402B013C0120E0E5
:103B100030E048EC52E4C701B6010E942C3E0E94FE
:103B200063409B01AC012419350946095709A4E6F5
:103B3000B0E00E94093F4B015C0120E030E048EC1E
:103B400052E4F80162857385848595850E942C3E38
:103B50000E9463409B01AC012419350946095709AD
:103B6000C501B4010E94EA3ECA01B9010E94CD3DDF
:103B7000F8016283738384839583C701B6016E96CF
:103B80000FB6F894DEBF0FBECDBFDF91CF911F916E
:103B90000F91FF90EF90DF90CF90BF90AF909F90EC
:103BA0008F907F906F905F904F9008950895089543
:103BB000089508950895CF93DF93EC01461B570BAA
:103BC000888199810E9436032A813B81820F931F4D
:103BD0009B838A83DF91CF910895EF92FF921F9389
:103BE000CF93DF93CDB7DEB766970FB6F894DEBFFD
:103BF0000FBECDBF9C01CB01FE0177964E2F1F2F2C
:103C00005AE0E52EF12CB7010E944D3F805D829372
:103C1000CB010097C1F7512FBF01C9010E94DB1DE5
:103C200066960FB6F894DEBF0FBECDBFDF91CF9181
:103C30001F91FF90EF9008958F929F92AF92BF9245
:103C4000CF92DF92EF92FF920F931F93CF93DF9368
:103C5000CDB7DEB766970FB6F894DEBF0FBECDBF07
:103C60007C018E01095E1F4F68018AE0882E912C2D
:103C7000A12CB12CCB01BA01A50194010E941C3FDB
:103C8000942F852F605DF80162938F01A901692F40
:103C9000782F411551056105710561F7A601BF0136
:103CA000C7010E94DB1D66960FB6F894DEBF0FBEFB
:103CB000CDBFDF91CF911F910F91FF90EF90DF90DB
:103CC000CF90BF90AF909F908F9008950F931F93C8
:103CD000CF93DF931F921F92CDB7DEB78C01DC012B
:103CE000ED91FC918081918169831A8241E050E0DD
:103CF000BE016F5F7F4F0E94B820F80182819381DF
:103D00000196938382830F900F90DF91CF911F9143
:103D10000F910895CF93DF93EC01FB0101900020F8
:103D2000E9F73197AF01461B570B888199810E94B3
:103D300036032A813B81820F931F9B838A83DF9105
:103D4000CF910895AF92BF92CF92DF92EF92FF9200
:103D50000F931F93CF93DF93CDB7DEB7AF970FB617
:103D6000F894DEBF0FBECDBF8C016B017A018EEAE5
:103D7000A82E83E0B82EBA82A9821B821C821D82E3
:103D80001E82CE0109960E940606BBA6AAA61CA604
:103D90001DA61EA61FA6D8011C968C91883060F423
:103DA0000E942111882321F0F80184850E947D0C56
:103DB00088E0D8011C968C938091DC099091DD09F4
:103DC000A091DE09B091DF098EA39FA3A8A7B9A790
:103DD0008B839C83AD83BE8318861F82AE01465DB4
:103DE0005F4FB601CE0101960E9468300097C1F086
:103DF000D801ED91FC910684F785E02D8EEA93E0E1
:103E00009DA38CA38CA59DA5AEA5BFA58EA39FA3A6
:103E1000A8A7B9A7A701BE016C5D7F4FC80119957E
:103E2000AF960FB6F894DEBF0FBECDBFDF91CF9136
:103E30001F910F91FF90EF90DF90CF90BF90AF90C8
:103E40000895CF92DF92EF92FF920F931F93CF933B
:103E5000DF936C017A018B01C0E0D0E0CE15DF0565
:103E600081F0D8016D918D01D601ED91FC91019009
:103E7000F081E02DC6011995892B11F02196EECF26
:103E80007E01C701DF91CF911F910F91FF90EF90BD
:103E9000DF90CF900895FC01538D448D252F30E0A5
:103EA000842F90E0821B930B541710F0CF96089547
:103EB00001970895FC01918D828D981761F0828D94
:103EC000DF01A80FB11D5D968C91928D9F5F9F734E
:103ED000928F90E008958FEF9FEF0895FC01918DF0
:103EE000828D981731F0828DE80FF11D858D90E05D
:103EF00008958FEF9FEF0895FC01918D228D892FFA
:103F000090E0805C9F4F821B91098F7399270895E1
:103F100087E399E00E947C1F21E0892B09F420E0CF
:103F2000822F0895FC01848DDF01A80FB11DA35AD3
:103F3000BF4F2C91848D90E001968F739927848FC9
:103F4000A689B7892C93A089B1898C9183708064EC
:103F50008C93938D848D981306C00288F389E02D8D
:103F600080818F7D80830895EF92FF920F931F933E
:103F7000CF93DF93EC0181E0888F9B8D8C8D98131C
:103F800005C0E889F989808185FD26C0F62E0B8D54
:103F900010E00F5F1F4F0F731127E02E8C8DE8127A
:103FA0000CC00FB607FCFACFE889F989808185FF3C
:103FB000F5CFCE010E94921FF1CF8B8DFE01E80F4D
:103FC000F11DE35AFF4FF0829FB7F8940B8FEA89F7
:103FD000FB89808180620AC09FB7F894EE89FF89CF
:103FE0006083E889F98980818370806480839FBFC2
:103FF00081E090E0DF91CF911F910F91FF90EF90C2
:104000000895CF93DF93EC01888D8823C9F0EA8966
:10401000FB89808185FD05C0A889B9898C9186FDC1
:104020000FC00FB607FCF5CF808185FFF2CFA889BE
:10403000B9898C9185FFEDCFCE010E94921FE7CF09
:10404000DF91CF91089580E090E0892B21F00E94CC
:10405000881F811125C080E090E0892B41F080E02D
:1040600090E0892B21F00E94000081111CC080E0AB
:1040700090E0892B41F080E090E0892B21F00E94B4
:104080000000811113C080E090E0892BA1F080E056
:1040900090E0892B81F00E94000081110AC00895F0
:1040A0000E940000D8CF0E940000E1CF0E940000D3
:1040B000EACF0C9400000895FC0120812EBD9B01E5
:1040C0002150310941F051810DB407FEFDCF4EB5AD
:1040D0005EBD4193F5CF61507109FC01E60FF71FFA
:1040E0000DB407FEFDCF8EB5808308950E94A942CE
:1040F000CF93DF9380E80E94B20BC4E1D0E00E942E
:10410000870E882351F061E070E080E090E00E942B
:104110002E2C2197A1F780E001C081E0DF91CF91A3
:1041200008950F931F93CF93DF93EC0188819981BA
:10413000009729F02A813B812617370788F48B01E5
:104140006F5F7F4F0E94C441009761F0998388831D
:104150001B830A832C813D81232B11F4FC011082E7
:1041600081E001C080E0DF91CF911F910F91089510
:10417000EF92FF920F931F93CF93DF936115710519
:1041800011F480E01CC041155105C1F07B01EC0128
:104190008C819D818A01080F191FB801CE010E94F0
:1041A0009120882371F3288139818C819D81B70109
:1041B000820F931F0E94D4421D830C8381E0DF9104
:1041C000CF911F910F91FF90EF900895CF93DF93C0
:1041D000EC0188819981009711F00E943B4119827E
:1041E00018821D821C821B821A82DF91CF91089552
:1041F000CF93DF93EC016115710561F0FB01019034
:104200000020E9F73197AF01461B570B0E94B820F9
:10421000811103C0CE010E94E620CE01DF91CF9133
:104220000895EF92FF920F931F93CF93DF93EC01CA
:104230007B018A01BA010E949120811104C0CE0144
:104240000E94E62007C01D830C83B70188819981F5
:104250000E94D442CE01DF91CF911F910F91FF9028
:10426000EF900895FC01808191810C943B41FB010A
:10427000DC0111961C921E9213961C921E921297AC
:1042800015961C921E9214978617970749F0608125
:1042900071816115710521F0448155810C941121C2
:1042A0000895FC01118210821382128215821482F9
:1042B0006115710551F0FB0101900020E9F731977C
:1042C000AF01461B570B0C94112108956115710520
:1042D00079F0FB0101900020E9F73197AF01461B0F
:1042E000570BDC01ED91FC910280F381E02D1994D4
:1042F00080E090E008958F929F92AF92BF92EF92EC
:10430000FF920F931F93CF93DF93CDB7DEB7A197A3
:104310000FB6F894DEBF0FBECDBF7C01FA01CB0112
:1043200019A2223008F42AE08E010F5D1F4F822E61
:10433000912CA12CB12CBF01A50194010E941C3F1E
:10434000F901CA01015011096A3014F4605D01C01D
:10435000695CD8016C93232B242B252B61F7B801C2
:10436000C7010E946621A1960FB6F894DEBF0FBE6A
:10437000CDBFDF91CF911F910F91FF90EF90BF9034
:10438000AF909F908F9008958F929F92AF92BF921F
:10439000CF92DF92EF92FF920F931F93CF93DF9311
:1043A0007C01EB016C0182E0C80ED11C4701E5E005
:1043B0008E0E911C00E010E0F60141916F0150E07B
:1043C00060E070E02AE0CE010E947B215C01E88180
:1043D000F9810190F081E02D6EE2CE0119958A0DF0
:1043E0009B1D080F191F8C149D0431F7F70145819F
:1043F00050E060E070E02AE0CE010E947B21800F57
:10440000911FDF91CF911F910F91FF90EF90DF905F
:10441000CF90BF90AF909F908F90089563E278E027
:104420000C9466210F931F93CF93DF93EC010E94AE
:1044300066218C01CE010E940E22800F911FDF9118
:10444000CF911F910F910895DC018EEA93E08D9337
:104450009D9384E0FB0101900D928A95E1F7089508
:104460001F920F920FB60F9211240BB60F922F933B
:104470003F934F935F936F937F938F939F93AF93EC
:10448000BF93EF93FF9387E399E00E94921FFF9100
:10449000EF91BF91AF919F918F917F916F915F91BC
:1044A0004F913F912F910F900BBE0F900FBE0F9029
:1044B0001F9018951F920F920FB60F9211240BB6F2
:1044C0000F922F938F939F93EF93FF93E091470960
:1044D000F09148098081E0914D09F0914E0982FDEB
:1044E00012C09081809150098F5F8F732091510984
:1044F000821751F0E0915009F0E0E95CF64F958F9A
:104500008093500901C08081FF91EF919F918F911D
:104510002F910F900BBE0F900FBE0F901F9018950C
:10452000CF93C82F462F61E070E00E94580E61E0E3
:1045300070E08C2F0E948B0E8111F9CFCF910895DE
:10454000AF92BF92CF92DF92EF92FF920F931F93A1
:10455000CF93DF9300D01F92CDB7DEB78C016B01F4
:104560007A01809136098333F1F45B016801C40E4E
:10457000D51E0C151D0509F460C00E94A70B8FE025
:104580000E94C50B812F0E94C50B802F0E94C50B76
:104590000F5F1F4F80E00E94C50BF50181935F0103
:1045A0000E949D0BE6CF8433F1F40E94A70B198380
:1045B0000A838F2D8F778B83EC8264E070E0CE01CD
:1045C00001960E945C20A70160E070E0C6010E9495
:1045D000C442E114F10421F0B701C6010E945C203D
:1045E0000E949D0B2AC00E94A70B0F3F110509F0E6
:1045F00020F419820A831B821DC017FD0BC019828B
:104600000A8333E0169507953A95E1F7007E086036
:104610000B8310C0C80126E0969587952A95E1F78F
:1046200019830A83807E0115104C10F4806101C04B
:1046300088618B8363E070E0C2CFC7010F900F9059
:104640000F900F90DF91CF911F910F91FF90EF90FE
:10465000DF90CF90BF90AF900895AF92BF92CF926E
:10466000DF92EF92FF920F931F93CF93DF93CDB71B
:10467000DEB728970FB6F894DEBF0FBECDBF8C0112
:104680007B016A01809136098333E1F45801A40E5D
:10469000B51E0A151B0509F48BC00E94A70B80EFFD
:1046A0000E94C50B812F0E94C50B802F0E94C50B55
:1046B0000F5F1F4FF70181917F010E94C50B0E9480
:1046C0009D0BE7CF843321F50E94A70B19830A8342
:1046D0008D2D80688B83CC8264E070E0CE010196E2
:1046E0000E945C2087010C0D1D1DE016F10669F08B
:1046F000F70181917F010E94C50BF7CFB6016D5F75
:104700007F4FCE0101960E945C200E949D0B50C0FD
:104710000E94A70B0F3F110509F020F419820A83AC
:1047200084E01CC017FD0BC019820A8333E0169584
:1047300007953A95E1F7007E0C600B8310C0C80125
:1047400026E0969587952A95E1F719830A83807E5E
:104750000115104C10F4846101C08C618B8326E03C
:10476000C216D10498F420E0822F90E08C159D05AC
:1047700028F6E4E0F0E0EC0FFD1FE80FF91FD70189
:10478000A80FB91F8C9180832F5FEECF63E070E09C
:10479000CE0101960E945C2087010C0D1D1DF701C2
:1047A00081917F010E94C50BE016F106C1F7ADCFE4
:1047B000C60128960FB6F894DEBF0FBECDBFDF91BD
:1047C000CF911F910F91FF90EF90DF90CF90BF900E
:1047D000AF9008951F93CF93DF9300D0CDB7DEB78E
:1047E00060E372E080E090E00E942E2C1FB7F89406
:1047F0008091E308811127C0E3E0F3E08491E9E4CC
:10480000F3E09491E82FF0E0EE0FFF1FE058FD4F2A
:10481000A591B491EC91E92321F461E085E30E9434
:104820009E2B61E085E30E94CD2B8CB580618CBD11
:104830008CB580648CBD61E084E30E94CD2B61E087
:1048400083E30E94CD2B8091E3088F5F8093E30880
:104850001FBFE8EDF2E0E491F0E0EE0FFF1FE65637
:10486000FD4F859194919093E1088093E008EEE1EB
:10487000F3E0E491E093DF0861E08AE00E94CD2B51
:104880000E949D0BCE0101960E94623089819A811F
:104890000E94D81A84E3809336090E9478208823E6
:1048A00079F188E00E94B20B0E94870E883041F5B2
:1048B00080E10E94B20B0E94870E803109F580E0F2
:1048C0000E94B20B0E94870E81111AC08FE190E006
:1048D0000E94760E8330A1F480E48093E20810E019
:1048E00042E06EE170E0812F0E94580E42E06FE1DD
:1048F00070E0812F0E94580E1F5F183089F725C085
:1049000087E3809336090E947820882321F188E08C
:104910000E94B20B0E94870E8830E9F480E10E9469
:10492000B20B0E94870E182F8031A9F480E00E94FC
:10493000B20B0E94870E81110EC089E390E00E94A5
:10494000760E843041F41093E2080E94D71A81E079
:10495000809368083AC083E3809336090E947820E8
:10496000882371F180E10E94B20B0E94870E803192
:1049700039F582E10E94B20B0E94870E823101F567
:1049800080E00E94B20B0E94870E811119C084E062
:104990008093E20815E51B8341E050E0BE016D5FA6
:1049A0007F4F8BE190E00E942D23198341E050E07E
:1049B000BE016F5F7F4F8AE190E00E942D23C5CF3B
:1049C000109236090E94D71A80E00F900F900F9036
:1049D000DF91CF911F910895CF93DF93EC01FB01FD
:1049E00044815581608171810E94B820811103C08A
:1049F000CE010E94E620CE01DF91CF910895EF9283
:104A0000FF920F931F93CF93DF93CDB7DEB7A1979C
:104A10000FB6F894DEBF0FBECDBF8C01CB01BA013B
:104A2000F8011182108213821282158214822AE008
:104A3000AE014F5F5F4F7A010E94943DF7010190F4
:104A40000020E9F73197AF014E195F09B701C8019E
:104A50000E941121A1960FB6F894DEBF0FBECDBF04
:104A6000DF91CF911F910F91FF90EF9008954F929A
:104A70005F926F927F928F929F92AF92BF92CF92EE
:104A8000DF92EF92FF920F931F93CF93DF93CDB7F7
:104A9000DEB7C857D1090FB6F894DEBF0FBECDBF41
:104AA0007C018B0166E278E087E399E00E94C532E1
:104AB000C8010E940F33D8016D917C91FE0131969F
:104AC0006F01CF010E94D442F60101900020E9F766
:104AD00031973F016C187D08D701AD90BC90E090F4
:104AE000E408F090E508F7014681578160857185FB
:104AF00084859585A7969FAF8EAFA797AB961CAE82
:104B00001DAE1EAE1FAEAB97AF961CAE1DAE1EAE59
:104B10001FAEAF97CE018B599F4F0E945706D7010A
:104B200056968C915697882309F4E7C014960D91F8
:104B30001C9115970F3FBFEF1B0719F00F5F1F4F19
:104B400002C001E010E0F701158304838089918998
:104B5000DC01ED91FC910680F781E02D19952C0187
:104B6000F70180899189DC01ED91FC910480F58148
:104B7000E02D19954C01E196BFAEAEAEE197E396FC
:104B80001FAE1EAEE397E5961FAE1EAEE597E79605
:104B90009FAF8EAFE797A114B10441F0F5010190EA
:104BA0000020E9F73197EA19FB0902C0E0E0F0E0E4
:104BB0003296CF01860D971DBC016E5F7F4F9C0121
:104BC0002D5F3F4F2038310514F4049606C021159F
:104BD000304414F4059601C00696481659060CF4A4
:104BE00046C082E3F4018083E7968EAD9FADE797E0
:104BF0000196E7969FAF8EAFE7970E94C51CE79698
:104C00002EAD3FADE797820F931FE7969FAF8EAF14
:104C1000E797E0962FADE097E1963FADE197E296FA
:104C20004FADE297E3965FADE397E4966FADE497FF
:104C3000E5967FADE597CE018B589F4F0E946D1C86
:104C4000B801CE018B589F4F0E94261CA301B601CC
:104C5000E7968EAD9FADE7970E94BB42E7966EAD9B
:104C60007FADE797660D771D6819790902C06EEF71
:104C70007FEF161617060CF040C0C7010E947F0692
:104C8000892BB1F5AE014B595F4F64E070E0C7016D
:104C90000E9421306C01892B59F5D70152968D91D4
:104CA0009C915397DC01ED91FC910680F781E02DFA
:104CB00019958C01F70182899389DC01ED91FC91B2
:104CC0000480F581E02D19959C01AE014B585F4F92
:104CD000BE0169587F4FCE0188589F4F0E94EC1C3F
:104CE000019721F08CEFC82EDD24DA94CD2829F02D
:104CF000F701168A108E178A15A6C858DF4F0FB60F
:104D0000F894DEBF0FBECDBFDF91CF911F910F9101
:104D1000FF90EF90DF90CF90BF90AF909F908F90DB
:104D20007F906F905F904F9008950F931F93CF9354
:104D300080E3E9EFF9E0DF011D928A95E9F783EE60
:104D40008093F90986E08093FB098CEE8093FC093F
:104D500081E38093050A9EE49093060A8093070AF4
:104D600084E38093080A8091E6099091E7096091B5
:104D7000E9097091EA09DC01ED91FC910688F78957
:104D8000E02D4BE750E019958091E6099091E709F5
:104D9000DC01ED91FC910280F381E02D40E350E0D5
:104DA00069EF79E019958091E6099091E709DC01B6
:104DB000ED91FC91008CF18DE02D1995C0E06AE039
:104DC00070E080E090E00E942E2C8091E6099091A6
:104DD000E709DC01ED91FC91028CF38DE02D199532
:104DE000C53609F458C0CF5F892B49F30E94682C5F
:104DF0002C2F30E0A9014F5F5F4FEAE0E49F900164
:104E0000E59F300D11248901330F220B330BDC0198
:104E1000CB01801B910BA20BB30B8093F5099093F0
:104E2000F609A093F709B093F8098091E6099091EB
:104E3000E709DC01ED91FC91048CF58DE02D40E358
:104E400050E069EF79E019958091210A9091220A4A
:104E5000982789279827A0E0B0E0DC0199278827C8
:104E60004091230A5091240A54274527542760E093
:104E700070E0842B952BA62BB72B80589E47AA4A0F
:104E8000B3488093F1099093F209A093F309B0938A
:104E9000F40981E001C080E0CF911F910F91089546
:104EA000CF93DF9367E379E00E94C421EC0187E3AD
:104EB00099E00E940E228C0F9D1FDF91CF910895E3
:104EC00044E050E0BC018FE090E00C942D2320E3FF
:104ED000FC0120833296862F82958F7090E1899F06
:104EE000601911246A3014F4605D01C0695C62933A
:104EF000682F8111F0CF08958F929F92AF92BF9249
:104F0000CF92DF92EF92FF920F931F93CF93DF9395
:104F1000CDB7DEB76E970FB6F894DEBF0FBECDBF2C
:104F20008C01C090ED09D090EE090D2C000CEE081C
:104F3000FF088091F1099091F209A091F309B091D5
:104F4000F409C80ED91EEA1EFB1E0E94682C809030
:104F5000F5099090F609A090F709B090F809681942
:104F600079098A099B0928EE33E040E050E00E946D
:104F70001C3FC20ED31EE41EF51EC701B60120E879
:104F800031E541E050E00E941C3F20E13EE040E07E
:104F900050E00E941C3FBA01A901CE014A305105E0
:104FA00061057105F0F401960E94FF2463E378E047
:104FB000CE0107960E945121BE016F5F7F4FCE0147
:104FC00007960E94EC24BC01CE0149960E9437212D
:104FD000CE0107960E943221CE0101960E94322115
:104FE00003C049960E94FF24C701B60120E13EE0BC
:104FF00040E050E00E941C3F2CE330E040E050E0F5
:105000000E941C3FBA01A901CE014A305105610539
:105010007105F0F401960E94FF2463E378E0CE016D
:1050200007960E945121BE016F5F7F4FCE01079608
:105030000E94EC24BC01CE0143960E943721CE0190
:1050400007960E943221CE0101960E94322103C0B0
:1050500043960E94FF24C701B6012CE330E040E0F4
:1050600050E00E941C3FAB01BC01CE014A3051050B
:1050700061057105F0F401960E94FF2463E378E076
:10508000CE0107960E945121BE016F5F7F4FCE0176
:1050900007960E94EC24BC01CE010D960E94372198
:1050A000CE0107960E943221CE0101960E94322144
:1050B00003C00D960E94FF24BE01675E7F4FCE01A4
:1050C00001960E94372168ED74E0CE0101960E949E
:1050D000F820BE016D5E7F4F0E94EC2468ED74E005
:1050E0000E94F820BE01635F7F4F0E94EC24BC0148
:1050F000C8010E943721CE0101960E943221CE01C3
:105100000D960E943221CE0143960E943221CE019B
:1051100049960E943221C8016E960FB6F894DEBF00
:105120000FBECDBFDF91CF911F910F91FF90EF90F8
:10513000DF90CF90BF90AF909F908F9008952F9267
:105140003F924F925F926F927F928F929F92AF9217
:10515000BF92CF92DF92EF92FF920F931F93CF9364
:10516000DF93CDB7DEB7E9970FB6F894DEBF0FBE79
:10517000CDBF7C014A015B0119010E94682C2B0103
:105180003C0187010D5B1F4FC8010E94C510181616
:105190001906A4F00E94682CDC01CB018419950942
:1051A000A609B70988169906AA06BB06D8F062E3D5
:1051B00070E080E090E00E942E2CE6CF42E250E0CA
:1051C000BE016F5F7F4FC8010E947D1089818230D0
:1051D00011F080E035C1F801848995898334910507
:1051E000C1F702C08FEF2CC16D817E818F819885C0
:1051F0000E94693F2B013C01F1016083718382832E
:10520000938346E050E0B701685F7F4FCE014D9633
:105210000E94AE42892BE9F6F70180819181A2813B
:10522000B381481659066A067B0698F284819581F7
:10523000A681B78184159505A605B70550F2898921
:105240009A89AB89BC8986879787A08BB18B4EECF6
:1052500050E060E070E0C8010E947D101FA6670169
:10526000F2E2CF0ED11CC701869699AB88ABF7014D
:10527000BA96FBABEAAB4701FAE18F0E911C8D9613
:105280009DAB8CABF7017296FFABEEABCD9799AFB0
:1052900088AF17019EE1290E311CF801818D928D96
:1052A000181619060CF0CBC0C8010E949C1083335D
:1052B000910509F4A5C0ACF48130910569F11CF4A5
:1052C000892B59F3B6C08330910571F1069709F027
:1052D000B0C0C8010E949C105C0144E050E0B101E4
:1052E0002BC08A33910509F45FC034F485339105EE
:1052F00059F0C69771F19DC08B33910509F46AC0CE
:105300008F3F910551F295C0C8010E949C10C801C1
:105310000E949C108FA7C1CFC8010E949C1044E03E
:1053200050E06EA97FA911C0C8010E949C105C01C9
:1053300044E050E068AD79ADC8010E947D10A50140
:1053400055274450510960E070E0C8010E947D106B
:10535000A4CFC8010E949C105C01B401CE018396C9
:105360000E9424228DA19EA1AFA1B8A5892B8A2BD2
:105370008B2BA1F0ECA9FDA9408051806280738045
:10538000B401CE0189960E9424228BA59CA5ADA5CF
:10539000BEA584159505A605B70521F444E050E0A7
:1053A000B401D3CFA50149C0C8010E949C1044E0BC
:1053B00050E068A979A9C8010E947D10F70166A193
:1053C00077A180A591A50E94693F66A377A380A7D6
:1053D00091A763CFC8010E949C1044E050E06AA9E5
:1053E0007BA9C8010E947D10F70162A573A584A561
:1053F00095A50E94693F62A773A784A795A74DCF83
:10540000C8010E949C1044E050E0B601C8010E940F
:105410007D10F70162A173A184A195A10E94693F4B
:1054200062A373A384A395A366A777A780AB91AB70
:1054300034CFC8010E949C10AC01552784CF8FA5A2
:10544000E9960FB6F894DEBF0FBECDBFDF91CF91C6
:105450001F910F91FF90EF90DF90CF90BF90AF9092
:105460009F908F907F906F905F904F903F902F9084
:10547000089590E0FC013197E231F10508F04EC04B
:105480008827EE58FF4F8F4F0C94613F809180002A
:105490008F7703C0809180008F7D80938000089576
:1054A00080918000877FF9CF84B58F7702C084B563
:1054B0008F7D84BD08958091B0008F7703C0809167
:1054C000B0008F7D8093B0000895809190008F7719
:1054D00007C0809190008F7D03C080919000877FEE
:1054E0008093900008958091A0008F7707C08091ED
:1054F000A0008F7D03C08091A000877F8093A000D3
:105500000895809120018F7707C0809120018F7DC1
:1055100003C080912001877F8093200108958F929E
:105520009F92AF92BF92CF92DF92EF92FF920F9332
:105530001F93CF93DF93CDB7DEB760970FB6F89484
:10554000DEBF0FBECDBF7C0190913609992309F4CF
:10555000B8C0933311F008E001C004E05B01CE0154
:1055600001960E94623089819A810E94D81A9E0118
:105570002F5F3F4F6901490110E063E070E0812F28
:105580000E948B0EF40181934F018823C9F01F5FA5
:105590000113F3CF10E0F60181916F018D3159F0C5
:1055A000883149F08A51823030F01F5F0113F3CF08
:1055B0000E94D71A86C060E170E0812F0E9490227D
:1055C000C12ED12C83EE93E00197F1F742E860E021
:1055D00070E0812F0E94580E4FEF62E070E0812F43
:1055E0000E94580EA114B10411F0B50113C08091AE
:1055F00000029091010201968115F0EC9F0710F4D2
:1056000080E090EC90930102809300026091000290
:1056100070910102812F0E94F80D86E0E6E4F3E02C
:10562000DE01199601900D928A95E1F7F7018381C9
:105630008F778C8784818D8785818E87A7014E5FC8
:105640005F4F24E030E06CE070E0812F0E94060D97
:10565000B501812F0E94E20D26E030E0AE01475FE8
:105660005F4F66E070E0812F0E94060D61E070E000
:10567000812F0E94902227E02C9DC0012D9D900D2E
:1056800011249C012251374F7901F90111821082B6
:1056900022E030E0AE01415F5F4F68E270E0812FB1
:1056A0000E94C51A8F859889982789279827F7011E
:1056B000938382831682158214820E94D71A812FC7
:1056C00001C088E060960FB6F894DEBF0FBECDBF74
:1056D000DF91CF911F910F91FF90EF90DF90CF90CE
:1056E000BF90AF909F908F900895CF93DF93282F16
:1056F00030E0F901E65AFC4F8491F901EC5EFC4F71
:10570000D491F901E253FD4FC491CC2391F0811162
:105710000E94392AEC2FF0E0EE0FFF1FEC54FD4FF2
:10572000A591B491EC91ED2381E090E021F480E02B
:1057300002C080E090E0DF91CF9108951F93CF9356
:10574000DF93282F30E0F901E65AFC4F8491F901EC
:10575000EC5EFC4FD491F901E253FD4FC491CC2390
:10576000C1F0162F81110E94392AEC2FF0E0EE0FC4
:10577000FF1FE656FD4FA591B4919FB7F894111104
:1057800004C08C91D095D82302C0EC91DE2BDC9321
:105790009FBFDF91CF911F910895CF93DF9390E04A
:1057A000FC01EC5EFC4F2491FC01E253FD4F84911F
:1057B000882361F190E0880F991FFC01E058FD4FAC
:1057C000C591D491FC01E656FD4FA591B4916111AC
:1057D00009C09FB7F8948881209582238883EC9133
:1057E0002E230BC0623061F49FB7F8948881322F6A
:1057F000309583238883EC912E2B2C939FBF06C07A
:105800008FB7F894E8812E2B28838FBFDF91CF913B
:1058100008953FB7F8948091EA089091EB08A09121
:10582000EC08B091ED0826B5A89B05C02F3F19F0F4
:105830000196A11DB11D3FBFBA2FA92F982F882710
:10584000820F911DA11DB11DBC01CD0142E0660F6B
:10585000771F881F991F4A95D1F708958F929F92BD
:10586000AF92BF92CF92DF92EF92FF926B017C01D9
:105870000E94092C4B015C01C114D104E104F10424
:10588000F1F00E94092CDC01CB0188199909AA09C1
:10589000BB09883E9340A105B10570F321E0C21A0F
:1058A000D108E108F10888EE880E83E0981EA11C5B
:1058B000B11CC114D104E104F10419F7DDCFFF904C
:1058C000EF90DF90CF90BF90AF909F908F90089512
:1058D0002FB7F8946091E6087091E7088091E80886
:1058E0009091E9082FBF08954F925F926F927F9237
:1058F0008F929F92AF92BF92CF92DF92EF92FF92E0
:105900000F931F93CF93DF93CDB7DEB7CE5ED14019
:105910000FB6F894DEBF0FBECDBF65E078E0CE01D4
:105920008A529F4F0E945121BE016A527F4FCE0181
:1059300001960E94372165E378E0CE0101960E942E
:10594000F820BC01CE018F519E4F0E943721CE011D
:1059500001960E943221CE018A529F4F0E9432212D
:10596000C090ED09D090EE090D2C000CEE08FF0858
:105970008091F1099091F209A091F309B091F40995
:10598000C80ED91EEA1EFB1E0E94682C0091F50964
:105990001091F6092091F7093091F809601B710BFD
:1059A000820B930B28EE33E040E050E00E941C3F56
:1059B000C20ED31EE41EF51ECE018A529F4F0E94D6
:1059C0000903CE018A529F4F0E94B915C551DE4F7F
:1059D000688379838A839B83CB5ED140C351DE4F3A
:1059E00048815981CD5ED1406EE378E0C551DE4FEC
:1059F00088819981CB5ED1400E94800260E070E096
:105A00000E94E902E091E209F091E309008111812D
:105A1000C351DE4F48815981CD5ED14061E478E0C9
:105A2000C551DE4F88819981CB5ED1400E948002B2
:105A3000B8010E94E902E091E209F091E309628174
:105A40007381848195810E9463404B015C01C35145
:105A5000DE4F48815981CD5ED14064E478E0C55184
:105A6000DE4F88819981CB5ED1400E948002B401D3
:105A70000E94E9028091E2099091E3090E94401D91
:105A80004B015C01C351DE4F48815981CD5ED1404D
:105A900067E478E0C551DE4F88819981CB5ED140C3
:105AA0000E948002B501A4010E942703E091E2094F
:105AB000F091E30986809780A084B184C351DE4FC2
:105AC00048815981CD5ED1406AE478E0C551DE4F0E
:105AD00088819981CB5ED1400E948002B501A401EA
